:10200000008000200D490000F5480000F548000060
:1020100000000000000000000000000000000000C0
:10202000000000000000000000000000F548000073
:102030000000000000000000F548000061490000B9
:10204000F5480000F5480000F5480000F54800009C
:10205000F5480000F5480000F5480000F948000088
:10206000F548000009300000F5480000F548000080
:10207000F5480000F5480000F5480000F54800006C
:10208000F5480000F5480000F5480000F54800005C
:1020900000000000F5480000F5480000F548000089
:1020A000F5480000F5480000F5480000F54800003C
:1020B0000000000010B5064C2378002B07D1054B1B
:1020C000002B02D0044800E000BF0123237010BDA4
:1020D0001001002000000000F400020008B5084BC9
:1020E000002B03D00748084900E000BF07480368F9
:1020F000002B03D0064B002B00D0984708BDC046EC
:1021000000000000F4000200140100200C01002077
:102110000000000030B589B0456803AC00940E485B
:10212000291C0022122300F06FFD002804D00B4967
:102130000B4800F0D3FF0CE022890A4B9A4208D1E9
:102140006289094B9A4204D1084B01221D70084B49
:102150001A7009B030BDC04660110020F452000072
:102160009413002055090000217300000400002092
:1021700030110020F7B5061C0191041C019AA31B25
:102180000C4D934211DA0C4F23783A681B09D15C4D
:10219000281C00F095FF22780F2313403A68281C72
:1021A000D15C00F08DFF0134E8E7281C00F08EFFC1
:1021B000F7BDC0469413002000000020F8B52A4D5A
:1021C000061C0A1C281C311C1F1C00F02BFC01687B
:1021D0007F224B0125491640CB189989041C914355
:1021E0000E439E810368027A5B01D10704D5204A21
:1021F0009B1801225A7103E01D4901225B181A71D4
:102200008021206849013A1C02F02CFA281C022186
:1022100022680F2300F00CFA002818D0012811D1F1
:102220002268144953015B18DA79217A0240151C9F
:102230000540814329432172002A01D0987106E0AC
:10224000587104E00C490D4800F048FF0BE022688B
:10225000074953015B18217A9A79012399431A405F
:102260000B1C13432372F8BD601100209419002049
:1022700000510041FF50004115530000941300200D
:1022800038B50B4D0B4B802464011878221C2B1C95
:102290000121FFF793FF281C221C002102F08DFF73
:1022A000054B00221A60054B1A6801321A6038BDCE
:1022B0002C010020040000205C11002034110020BB
:1022C000F7B50C1C0190134F134B3E68A5199D42A6
:1022D00015D980235B019B1B251E9D4200D91D1C27
:1022E0000E4801992A1C801902F05EFFAB193B6071
:1022F000FFF7C6FF019B641B5B190193E3E7002C0A
:1023000006D0064801998019221C02F04DFF3D605D
:10231000F7BDC0465C110020FF0F00002C0100201B
:1023200007B50421019001A8FFF7CAFF07BD00000F
:10233000F0B587B0104E6D461023EB754023012495
:10234000071C3078009300230193211C182280235E
:102350001735029402F016F9317808480097221CCC
:102360002B1C00F08DFC002803D00548054900F027
:10237000B5FE07B0F0BDC04604000020601100208B
:10238000941300202B53000070B5164C8022A544F6
:102390005201061C0D1C6846002102F00EFF124877
:1023A000FFF7BEFFA92168468900FFF789FFF024E7
:1023B000A4010E48013CFFF7B3FF002CF9D10C48F3
:1023C0005C21FFF77DFF68460A49FFF779FF301C63
:1023D000291CFFF775FFFFF753FF80235B019D4426
:1023E00070BDC04600F0FFFF9802030000F00140FE
:1023F000A5FD0100A40F0000F0B5144B144F154EBD
:102400000024012540213C2285B01C6059601A72CD
:10241000DD6019611A753178381C022200F019FB51
:102420003178221C231C381C00F019FC381C00F0E9
:1024300049FD40223078291C00920194029518220F
:10244000802302F09FF805B0F0BDC046381100208F
:102450006011002004000020F0B5464D8DB0281C0E
:1024600000F0DCF8444CE1214902201C00F0C0FFE0
:10247000642002F089FA201C404900F02FFE404BF6
:102480001B78002B18D1281C00F01CFD02F076FAF6
:102490003C4B1B6864339842F1D98A222E1C5200AF
:1024A0002436AF187368002B02D0301CFFF732FEC1
:1024B0001036BE42F6D1E2E73349201C00F00EFE92
:1024C000FFF79AFF1022002108A802F076FE08A864
:1024D000FFF72EFF2D49201C00F0EEFD08A810216B
:1024E000FFF748FE2A49201C00F0F8FD294A402346
:1024F0001078002600930123191C182201960293DC
:10250000331C02F03FF8244F244825493E60FFF772
:102510003BFF3B6801221F4E134205D12149201C7D
:1025200000F0DCFDFFF7ACFE201C1F4900F0D6FDDB
:10253000E023DB013178049305931C4B00220092C9
:1025400001920292039207920693281C812300F0C5
:10255000C5FA1749201C00F0C1FD642002F014FAEE
:10256000BFF34F8F134A144BDA60BFF34F8FC0464F
:10257000FDE7C04660110020941300204453000082
:10258000301100202C110020605300006D5300001A
:10259000795300000400002034110020DD530000B6
:1025A000C8A901008C530000AA5300002C01002090
:1025B000C65300000400FA0500ED00E0704700007B
:1025C00008B5024800F004F808BDC04660110020BC
:1025D000104B0122C261082230B50360041D0023A4
:1025E00082603C2203618361036244614360027341
:1025F000C2180021012510339162D5621163546223
:10260000F02BF5D1AA23AB40C154034B11221A6021
:1026100030BDC04610FE01000800002010B5AA23FE
:1026200000245B00C45401F0DDFE201C10BD00003E
:10263000F7B5171C00911E1C02F0A0F923490025D4
:1026400041180191381C009902F020F82C1C02F06E
:1026500095F90199814236D901F066FF022832D1FD
:10266000381C009902F03EF800282AD118487B0156
:102670001A18107A0421084205D011720134002E74
:1026800001D0B4421BD0134AD11808318978880789
:1026900004D50134002E01D0B44210D0D218083233
:1026A000D2880820024202D00135032D0CD0094AFD
:1026B0000120D3180833DB880342C8D004E002208D
:1026C00002E0002000E0FF20FEBDC0461027000011
:1026D000FF50004194190020F0B50C1C87B0197808
:1026E0001E1C059200236268337003922368227ACD
:1026F000049002915B01910704D5324A9B18012294
:102700005A7103E02F4901225B181A7123680C9952
:102710005A012D4B0025D15022682B4F5301DA5915
:102720000498AA18DA510121059B2268FFF780FF5F
:102730002368012814D125495B015B18DA79277ACF
:102740000240111C01404900019102218F4301996F
:1027500039432172002A01D09871DDE75871DBE717
:10276000002805D0174A5B019B1810225A7127E0F8
:1027700014495A015B015B18BF1840217A6819712E
:10278000029D9204920C954200D9151C3378039A4D
:10279000EB18DBB23370954202D302998B42BBD364
:1027A00022680A4953015B18D979012211409140EE
:1027B000227A022082430A43227210229A71002058
:1027C00007B0F0BD0051004194190020FF500041B6
:1027D000F0B54F6895B01D1C7B1E03900C1C029237
:1027E000DA203F2B56D80023AB4206D21A99CA5C96
:1027F00004A9CA540133DBB2F6E72368227A5B01ED
:10280000D10704D5244A9B1801225A7103E02249BA
:1028100001225B181A710020002D2FD02E1EBE42FF
:1028200000D93E1C2068311C04AA01F01BFF03984C
:1028300002212268029BFFF7FBFE00281CD0022821
:1028400004D0082826D0012818D103E0029A012AD2
:1028500020D113E02168114A4B019B18DA79217AC3
:1028600002400092814302400A432272009A002AE9
:1028700001D0987100E05871AD1BCDE72168064A80
:102880004B019B18217A9A79012399431A400B1C1A
:102890001343237215B0F0BD00510041FF500041B9
:1028A000F7B5141C009001911D1C0026019A009B95
:1028B0009700DF19FC37B869211C03685A68089B28
:1028C00094462A1CE047C3B2E02B16D1002C09D154
:1028D000234B8022198992000A431A81662002F054
:1028E00053F811E0231C009A44339B00D318586816
:1028F000291C03685B69984706E0002B04D0F3B2FB
:10290000022B0FD9C0B229E0B869211C03682A1C28
:102910001F68089BB847C3B2071C002B12D0F3B244
:10292000022B04D8642002F02FF80136BEE7002CF9
:102930000AD10B4B8022198992000A431A81662022
:1029400002F022F8F8B209E0009B4434A4001C19FC
:102950006068291C03685B699847F3E7FEBDC046C1
:10296000005000410123826A8A4201D1181C05E00F
:102970000133DBB21030102BF5D100207047F8B5D1
:102980001F1C0023151C041C0E1CCA099A4236D1B8
:10299000072F34D89D4202D0016907292FD0201C6F
:1029A0000021FFF7DFFF0023984228D09E4212D17A
:1029B00001309D4207D00301E31841229A60236948
:1029C0000133236103E00301E31801229A6000014F
:1029D0002418A36813E007221640F600002D07D044
:1029E00021694023013133430A402161134303E04D
:1029F000331C174093433B4300012418A361181C68
:102A0000F8BD10B5041C143000290AD0201CFFF7B3
:102A1000A9FF0023984203D0013000012418231D90
:102A2000181C10BD10B5141CFFF7EBFF00280FD0C9
:102A30000368002B09D082680021914205D01868F4
:102A4000A04204D00C330131F7E7002000E0181C4D
:102A500010BD70B50D1C161C1C1E06D0FFF7D1FF53
:102A6000002804D070C0002002E0D82000E0D6206A
:102A700070BD0000F8B5051C0C1C171C1E1CFFF7D0
:102A8000C0FF002826D00368D720002B23D0281CA5
:102A9000211C3A1CFFF7C6FF3060002818D0037ACB
:102AA0009B080F2B03DC01229A40131C01E08023BA
:102AB0001B02069A013B1360036807495B01CB18B0
:102AC00099897F22144091430C439C81002002E0AD
:102AD000DB2000E0D620F8BD94190020F0B58FB0BF
:102AE000029314AB1B78051C039315AB1B78171CC2
:102AF000049316AB1B781B9E059317AB1B8806939C
:102B000018AB1B88079300230893099309AB009324
:102B100008ABFFF7AFFF041E70D1402101F00AFDA2
:102B2000041E6BD1039B0CAA53700299059B117074
:102B3000D3700499079B9170D3800699089B91806C
:102B40001868082101F08EFD211C281C3A1C099BE5
:102B5000FFF76EFD041E51D102991A9ACF09002A7F
:102B600037D00899099A0B7A002F27D002242343E3
:102B70000B72199B281C0A931A9B00930AABFFF750
:102B8000ABFD012210420CD0089B1D6869011D4D50
:102B9000491989790A4051001A7AA2430A431A72E4
:102BA0002BE0002829D1002E13D033680A991C6825
:102BB0001A9A0B900BAB301CA0470AE0012003438C
:102BC0000B721A9B281C0093199BFFF701FE041E31
:102BD00014D1089B186801F03BFD089B281C19685C
:102BE0004A0108495218012151717A427A41022161
:102BF000891A1A68099BFFF71BFD041C201C0FB0E3
:102C0000F0BDC0460051004130B5012589B00295A4
:102C100005939DB206240C9B009400240693019416
:102C20000394049507948023FFF758FF09B030BD43
:102C300010B5DBB288B00193052400230094029301
:102C400003930493059306930793FFF747FF041C30
:102C50009620400001F098FE201C08B010BD10B571
:102C6000DBB288B0019309240023009402930393FC
:102C70000493059306930793FFF730FF08B010BD48
:102C800030B585B0041C1D1C002003AB02900390DE
:102C90000093201C02ABFFF7EDFE002807D1089B34
:102CA000201C00930299039A2B1CFFF715FD05B019
:102CB00030BDF8B5041C0F1E28D04B1C1B01C318D7
:102CC0001D7A6E076D06760FED0F012D0FD16B1C6F
:102CD0001A01A218127A9206520FB24211D01D1E8A
:102CE0000F2DF4D92369B34201D1013E26613F0182
:102CF000E719002201210434BA61F9613A627C616A
:102D000004E0201C291CFFF7D4FFE0E7F8BD10B554
:102D1000041C41290ED1011C031CF03101200022AA
:102D2000D862201D9A621A63586210338B42F5D123
:102D3000226105E0FFF716FE011C201CFFF7B9FF1A
:102D400010BD70B51E1C031C041C151C143301D1CE
:102D5000D62026E04369002B22D0331C5A1E934113
:102D6000036200222B1CFFF70AFE051CD420002D55
:102D700017D0201C291CFFF744FE0028E8D00021B2
:102D8000C6600A1C201C2B1CFFF752FF061C0020EB
:102D9000864206D0201C291CFFF7B9FF301C00E03A
:102DA000D72070BDF0B591B002930823099308AE07
:102DB0003C233372036805920022049108921B6839
:102DC000111C071C9847051CD620002D77D02B68B6
:102DD000029A0BAC0021EA6003932E600A1C1223B6
:102DE0000094381CFFF710FFE279031C7260039A0D
:102DF0002A60002B63D122891D1C039262890692EE
:102E00008A2224795200BE180794341C20680028B6
:102E100006D101350434102DF8D1341C002514E0FE
:102E200003681B6998470028F3D120680399036859
:102E3000069A9B699847002829D12068079903685A
:102E4000DB699847002822D1E3E72068002813D0E7
:102E500003681B69984700280ED12068039903680E
:102E6000069A9B699847002806D12068079903684D
:102E7000DB699847002815D001350434102DE4D1C2
:102E8000381C0499059A029BFFF75BFF17E0029B31
:102E9000381C0093291C049A059BFFF701FDD128DB
:102EA000B7D00CE0029A059B0092381C049A291CAA
:102EB000FFF7F6FC0823021C9A43D12ADCD011B09C
:102EC000F0BD0000F7B500230193061C01F02CFBB8
:102ED0000190019B022B10D0032B02D0012B19D1A2
:102EE00002E01322444B06E0434BF02219680A40EB
:102EF000102A0FD011221A600CE03F4CF0232268F8
:102F00001340102B06D101F039FD3C4BC83018603E
:102F100020232360002573191533FF331868002818
:102F200002D00368DB6898470435402DF3D1324C5A
:102F30002368271C302B26D004D8112B09D0202B36
:102F400019D057E0502B39D0802B43D0402B51D192
:102F500021E001F047FA002433191533FF331868D4
:102F6000002802D003689B6898470434402CF3D1B2
:102F700012233B603EE001F001FD204B1B68C01AAC
:102F800038D4302335E01E4B8022198992000A4341
:102F90001A8125602EE01A4B0822998B114229D004
:102FA0009A831989802252000A431A815023236090
:102FB00001F0E4FC114B143018601BE0104B9B8BAC
:102FC000590717D50D4B1D6801F0D8FC80238542A9
:102FD0000FD30FE00021301C0A1C0B1CFFF7E2FE90
:102FE000002805D0D22805D0064B1860A02300E0A9
:102FF00090232360F7BDC04608000020BC120020CB
:1030000000500041B812002008B5024801F0EAFB68
:1030100008BDC046C012002013B50D4C0D49201C40
:1030200000F066F80C490D4800F062F80C490D48B4
:1030300000F05EF80C490D4800F05AF80322012315
:1030400001930092211C0423094801F0A7FB13BD42
:103050008813002000080042000C00428C1300205E
:10306000001000429013002000140042841300203E
:10307000C0120020F7B58A18061C0D1C01920C1C0A
:10308000019B671B9C4207D0336821781B68301C6A
:10309000984701340028F3D1381CFEBD38B5051C13
:1030A0000C1C081E07D002F0F7F82B68021C5B68A6
:1030B000281C211C984738BD08B5FFF7EFFF08BD55
:1030C00008B503681B68984708BD000008B50249A9
:1030D000FFF7E4FF08BDC0464800020038B5041CF5
:1030E000FFF7DCFF051C201CFFF7F0FF281838BD98
:1030F00001607047F7B508AC267804689D1E276804
:103100006C1EA541ECB2920705683A4327063A4384
:103110002A600268072529405068B501002C00D0BC
:103120005C03294301430C435460F7BD30B5036889
:10313000C0251C68AD0312052A402243C024A40206
:10314000090421401143196003685A6814435C6004
:1031500030BD036801211A680A431A6002681168C9
:1031600001231942FBD1D1691942F8D17047036894
:1031700002211A680A431A600268D3699907FCD4CD
:10318000704703681A7ED10702D41A7E9107FCD5D6
:103190007047036800225A8370470368187E40070F
:1031A000C00F70470368187EC0097047036880220B
:1031B000197E52420A431A7670470368188DC0B2CE
:1031C000704703681A7E01200242FBD019857047C0
:1031D00003681C4A30B593420BD01B4A93420BD074
:1031E0001A4A93420BD01A4A93422AD10C2317222F
:1031F00007E00923142204E00A23152201E00B232F
:103200001622DCB2134901209B08A0409B000860F5
:103210005B180320C021890004405D58E000FF24B2
:103220008440A5432C1CC0258540281C20435850B1
:103230008023DB011A43084B5A805A7852B2002A85
:10324000FBDB30BD00080042000C004200100042D1
:103250000014004200E100E0000C0040F8B5041C3E
:10326000151C0E1C1F1CFFF7B3FF201CFFF771FF7E
:10327000B1001C220A4069072368090C0A431A603E
:10328000226884239375012E1AD10821012D00D1C3
:1032900010210C4B79431868C00001F005FF23682A
:1032A00007219A890140D2044903D20C0A439A812A
:1032B00023680004C20C9889400B40031043988196
:1032C000F8BDC046880000203F20704713B5026853
:1032D0006B46D97107335468191C0122A04716BDEB
:1032E00008B50069022100F027FC08BD08B5006997
:1032F000032100F037FC08BD38B50D1C041C131C5D
:10330000006903212A1C00F029FD002801D10123B6
:10331000636038BD10B5054C23685A1C04D103689E
:10332000DB6898472060031C181C10BD5C0000205F
:10333000074A08B51368591C04D00121494211609D
:10334000181C03E00069022100F0FAFC08BDC04629
:103350005C00002008B50378034902330370422261
:10336000024800F0B1FD08BD180000205F180020E1
:1033700010B50178031C42780020A12908D1212A28
:103380002FD118481849072200F09EFD012028E09F
:10339000212926D1202A05D113490722114800F0FE
:1033A00027FC04E0222A10D19A780F4BDA710E4BD9
:1033B00096221968D200914210D1DC7901231C4079
:1033C0000CD1FA2001F080FD0AE0232A09D1DA7835
:1033D0009B7812021A43054B1A6002E001F07AFD55
:1033E000002010BD5F1800200C00002014000020F9
:1033F00070470000064BFA218900996005490022B8
:103400000831196004495A6019611A767047C0463C
:1034100094130020580002005F18002070B5C2B25B
:1034200019495301CB189E68184DC0242E40A4059D
:1034300026439E60164E8001096830180832586095
:103440005201505C0726B0430126304350549E6918
:1034500035402C439C610F4C5C61505C7024A04350
:103460001024204350549C680B488A182040802424
:1034700064032043986098684021800B8003986023
:1034800053790B43537170BD68180020FFFFFF8F05
:1034900080160020BC140020FF3F00F038B5041C4B
:1034A00008CC01211A78051C0A431A708022201CBE
:1034B0000021520001F081FE2B689A78D107FCD4DC
:1034C0005C6238BD134BF0B51B6899035A029B012F
:1034D000C90ED20E5B0F1F2900D105211F2A00D172
:1034E0001D22072B00D1032304688E01278D0A4972
:1034F0001F2539403143218501682A400C8DAC439A
:1035000022430A8502681903108D044B03400B43C4
:103510001385F0BD246080003FF8FFFFFF8FFFFFA1
:10352000EFF3108303600123436072B670470368B2
:10353000002B02D162B6BFF36F8F704737B50569B4
:10354000041C6846002D12D1FFF7EAFF019B013BE6
:1035500003D3621DD57FEDB2F9E768460193FFF70B
:10356000E6FF0020854217D0206AE36913E0FFF7E9
:10357000D7FF019B0025013B04D3221C3432157870
:10358000EDB2F8E768460193FFF7D1FF00208542CE
:1035900002D0206BE36AC01A3EBD0000436810B53C
:1035A0001A68037A01215B01D318FF339A7A0A4320
:1035B0009A72037A42685B01D318C2689C689104CE
:1035C0000B4A090922400A439A60037A42685B0168
:1035D000D3189A684021920B92039A6043681A6844
:1035E000037A08335B01D3181A790A431A7110BDA4
:1035F000FF3F00F0F7B50569041C0E1C171C684658
:10360000002D1FD1FFF78CFF019B013B5A1C06D0F8
:10361000621DD17F5A1E00293AD0131CF6E7684676
:103620000193FFF784FF0025E369BD4235D0226A8C
:10363000934232D25A1CE261A269D3181B787355A7
:103640000135F1E7FFF76CFF019B013B5A1C08D0E5
:10365000221C343215785A1EEDB2002D18D0131CDE
:10366000F4E768460193FFF762FF0025E36ABD4275
:1036700026D0226B934241D322E0621D0021D177F4
:1036800030321678581E8E4214D1031C5A1CF4D1C5
:1036900068460193FFF74BFF38E0226A934235D129
:1036A0000023E361012323616846FFF739FF019B93
:1036B000013BEBE71170201C0193FFF76FFFF6E76A
:1036C000226B934222D10023E36223616846FFF715
:1036D00027FF019B013B5A1CDAD0221C3432002107
:1036E000117001321678581E8E4201D1031CF2E788
:1036F0001170201C0193FFF751FFEAE75A1CE262A8
:10370000A26AD3181B7873550135AFE7281CFEBD9C
:1037100037B54368027A1B68083252019A18041CB4
:10372000D0790123FF21184253D0D371A068656975
:1037300062680140002D20D14901521891686361EF
:103740008904890C2162A16A68465160621DD377A1
:10375000FFF7E6FE019B013B5A1C33D0221C34329A
:103760001178581EC9B20132002903D001930123F8
:10377000137023E01170031CEEE74B01D3189A6815
:10378000A5699204920C22630022626168465D6022
:10379000FFF7C6FE019B013B01E011702B1C591C79
:1037A00010D0221C343201201070621DD17F5D1EAA
:1037B000C9B230320029F0D0019310706846FFF78B
:1037C000B6FE06E068460193FFF7B1FE201CFFF746
:1037D000E5FE37BD37B500236C46E3710734201C86
:1037E0000D1CFFF7B7FD2B681818286001F040FC8E
:1037F000211C01F0F7FB2B681818286020783EBDCB
:1038000003290BD10D4BB2221B685200985C80211A
:10381000494201439954022168220CE001290CD14C
:10382000064B92221B685200985C8021494201435A
:10383000995402212822FF329954704768180020B9
:1038400038B5304B00240121051C16201C7001F0F6
:103850004FFA1620012101F0A5FA2B4B152001216A
:103860001C7001F045FA1520012101F09BFA274B4D
:103870002021DA6901200A43DA61254B06241A78EF
:1038800002431A70234B0F2219789143197019784B
:103890002143197020490C782043087019780A4098
:1038A0001A701A7860210A431A701C4B1C4A5A80FD
:1038B0005A78D209FCD11B4801F05AF81A4C201C46
:1038C000FFF7ECFD201CFFF7FDFD23687F22197830
:1038D0000A401A701A7804210A431A701A890C21B6
:1038E0008A431A81C121114A890050580002000AF6
:1038F0005050802111601A7802210A431A70012366
:103900002B7038BD7C160020641800200004004095
:10391000584400413C44004159440041000C0040DF
:1039200006400000554300006818002000E100E058
:103930000078002810D0094B01211B681A898A439E
:103940001A811A8B08210A431A831A8B04210A430D
:103950001A83034B00221A607047C0466818002083
:103960006C1900200F4B9A69920B92039A611B68A5
:103970000222FF331A7298798022524202439A71CE
:103980001A7A9007FCD5084B081C997A7F221040C0
:10399000914301439972997A802252420A439A7262
:1039A0007047C046681800200050004110B50B79E0
:1039B0000C1C002B0BD1081CFFF7DAFC002804D1EB
:1039C000094B9A69920B92039A6101200BE001F076
:1039D0004FFB211C01F03AFB0028F6D1024B9A69FB
:1039E000920B92039A6110BD68180020F8B50D1C67
:1039F000832A16D1CAB242495301CB189C69414867
:103A0000AD012040C024A405204398613E480832FF
:103A100045195D610B685201D15C702081434020E3
:103A200065E0022A45D1382000F0ECFF374B344FD7
:103A30008026036076000023421D03620361436118
:103A4000C36147608560C660D3772F32041CC362B0
:103A500003631370301C537001F09CFBA061301C99
:103A600001F098FBFF232A1C1A405201A062BF18E4
:103A7000B968244A07260A40C02189050A43BA606A
:103A8000A16862681940126808314901885CAD007C
:103A9000B043032630438854A16862680B405B0141
:103AA000A169D3185960201CFFF778FD184BEC5022
:103AB00025E0822A1ED1CAB211495301CB189C6954
:103AC0001048AD012040C024A405204398610E4851
:103AD000083245195D610B68520199180C798020F4
:103AE000404220430871D15C702081433020014363
:103AF000D15404E0002A02D1081CFFF78FFCF8BD66
:103B000068180020FFFFFF8FBC140020880002000F
:103B10004018002038B5051C0124064BA200D258DD
:103B2000002A06D0211C281C0134FFF75FFFE4B2F5
:103B3000F3E738BD6000002008B5084B8A00D05874
:103B4000002803D003689B68984706E0C9B2044B7D
:103B50004901591888688004800C08BD401800206D
:103B60006818002010B50C1CFFF7E6FF00280CD0E9
:103B7000064BE1B21B680831490159184A79802384
:103B80005B4213434B710223CB7110BD68180020B8
:103B900070B5CAB2134B144854018901591803195E
:103BA00059609D681149083229408025AD0229439A
:103BB000996099684026890B8903996003685101CF
:103BC00059180D7935430D715101591889794D06F0
:103BD000FAD551015918C979CD07FAD50419A06849
:103BE000C0B270BD8016002068180020FF3F00F0B2
:103BF00038B50C4B141C1B680D1CFF335A7940213F
:103C00000A435A710021FFF7C3FFA04200D9201CCC
:103C10000023A34204D0044A9A5CEA540133F8E733
:103C200038BDC046681800208016002010B5C9B203
:103C30000C48490143189A689204920C3F2A08D90B
:103C4000141C9A68403CA404920BA40C92032243D7
:103C500002E09A68920B92039A6041188868C0B299
:103C600010BDC04668180020F0B51C1C2F4B85B055
:103C70001B68061C0D1C0292002B51D02C4F39786A
:103C8000C9B2002902D1152001F08CF864233B70E1
:103C9000284BAA00D058002805D0036802995B6819
:103CA000221C984740E0301C291CFFF745FFA0422A
:103CB00004D2301C291CFFF73FFF041C291C301CB8
:103CC000FFF7B4FF1C4FE9B24A0101913968039232
:103CD0008B18FF335A7A01210A4318495A72AB01F3
:103CE000C9180298221C01F05FFA002C1BD0301C6E
:103CF000291CFFF721FF002815D1019B3A680833E2
:103D00005B01D31819794020014319710121D97140
:103D100003995318FF339A7A01210A439A7202E0F9
:103D20000120404200E0201C05B0F0BD6C190020CD
:103D30006418002040180020681800208016002019
:103D400013B56C460734221C0123FFF78DFF0128B1
:103D500001D1207801E00120404216BDF0B51C1CC5
:103D60003F4B85B01B680E1C0292002B6AD080234B
:103D7000DB019C4266D83B4D2978C9B2002902D1AB
:103D8000162001F00FF8642300222B700092002C03
:103D900056D0354DF7B22B6801933B1C0833019A7E
:103DA0005B01D3189B79DB091AD0304B3049186876
:103DB00001F07AF92F4B1721584301F075F93B1C9C
:103DC0000833019A5B01D318DB799A0708D42A4B90
:103DD0009A5D002A38D1421E002835D0101CEEE72B
:103DE000254B00229A55251E3F2D00D93F25234AF9
:103DF000B301D318181C02992A1C039301F0D4F9BB
:103E0000194A7B01D318039AA9045A619A69890C4B
:103E1000920B92030A439A613B1C019A08335B019F
:103E2000D3180222DA715979802252420A435A7118
:103E3000009B029A5B1952190093641B0292A6E739
:103E400000980BE0012008E001229A557B01ED1853
:103E5000AB69101C9B0B9B03AB61404205B0F0BDEE
:103E60006C1900207C1600206818002088000020B3
:103E700040420F0070110100B4140020BC14002057
:103E800070B50E4D1C1C8B01ED18281C0E1C111C4E
:103E9000221C01F089F9F6B20949760189194D61B0
:103EA0008A69084B201C13408B618B69A2049B0B11
:103EB000920C9B0313438B6170BDC046BC14002061
:103EC00068180020FF3F00F0F7B5114B01901B78F8
:103ED0000F1C141C002B19D10E4B1E78002E01D183
:103EE000151C08E00C4D0D482E888019361901F07C
:103EF0005BF92E800AE0002D08D0BA192B1C01981E
:103F00000021FFF7BDFF36182D1AF4E7201CFEBD77
:103F10005E1800205C180020B2140020B1130020AD
:103F2000F8B50E1C00AF151E012D28D9D31DDB08D6
:103F3000DB006A46D21A9546081C01F0ADF9013043
:103F40006C4640000323207063700222AA420ED206
:103F50003378002B0BD0511CC9B20136A354A942AF
:103F600004D0002302326354D2B2EFE72A1C054882
:103F7000211CFFF7A9FF431E9841C0B200E00020BA
:103F8000BD46F8BD5F18002008B5044B00221A702A
:103F9000034B04491A88FFF797FF08BD5C180020FF
:103FA000B2140020B1130020F0B5204A87B00123DD
:103FB0000026009102A91370051C0296FFF70AFC67
:103FC00003AC092701903A1C201C311C01F0F5F8C4
:103FD00002236370A023E371FA232372029B012260
:103FE000DB196380019B62712371104A009B27706B
:103FF0001670BB4205D1281C211C1A1CFFF764FF58
:1040000011E00B4B01221A700A4B211C3A1C281C90
:104010001E800296FFF758FF281C02A9FFF7DAFB63
:10402000281CFFF7B1FF012007B0F0BD5E1800208B
:104030005C180020B214002070B5CE788AB0051C40
:104040000C1C022E08D1C9882348FFF7ADFF031CC2
:10405000581E8341D8B23DE001F00AF8211C00F05F
:10406000D6FF002803D0C3171B1AD80F32E0012E49
:1040700004D1E2881949112A27D823E0032E29D137
:10408000A278002A05D11649E2880B78934219D804
:104090001BE0022A03D1A279281C124904E0012A5C
:1040A00005D1A2791049281CFFF73AFF12E0032A34
:1040B00010D100F0DDFF01A900F0B9FFA279281CA2
:1040C00001A9F1E7D2B2002A00D10A78281CFFF733
:1040D000FBFE01200AB070BD5F180020A2000200A4
:1040E0009E000200B40002009800020073B5051C97
:1040F00048780C1C0B2878D800F0CCFF081C7728D7
:10410000773E4306474B686F00206FE0097801AAAD
:10411000002903D111705170281C09E0002313708D
:104120005370334B1B78012B00D11370281C0021D6
:1041300002234FE08A780023012A04D101AA1370D8
:1041400053702C4BEEE72A4A137049E08E78012E0B
:1041500007D1284B01AA00211E701170281C331CA6
:1041600038E0002E08D1224A01231370224A9169B7
:10417000890B8903916138E0A178281CFFF7F2FBD5
:1041800033E0281CFFF758FF30E0281C00211B4AB1
:104190001FE00A780020D30628D1281CFFF7BAFCBC
:1041A000A2781549154B02241A600A682A23FF33A6
:1041B000D05C2043D0544A20FF30145C01231C43C0
:1041C00014548A69920B92038A610EE00C4A281CEF
:1041D00000210123FFF754FE07E08A78084B1A609C
:1041E000054B9A69920B92039A61012076BDC046F5
:1041F000B01300205D180020681800206C19002002
:1042000060180020F8B54B4B071C1C78002C00D020
:104210008EE0494D2868838B19070DD5201CFFF7C8
:10422000FDF82B6810201A1CFF32917A014391721D
:10423000424A146008229A832B689A8B50071FD534
:1042400004229A833E4B1A78002A0AD01A78013A3F
:10425000D2B21A701B78002B03D11620012100F076
:10426000A1FD384B1A78002A0AD01A78013AD2B246
:104270001A701B78002B03D11520012100F092FD4C
:104280002B68FF331A7AD10626D510221A725A7972
:1042900040210A432C495A710A786023381C1A427B
:1042A00002D1FFF723FF01E0FFF780FB002806D0D3
:1042B0002B688022FF33997952420A4301E0234B55
:1042C00020229A712B68FF331A7A500604D54022B7
:1042D0001A72597A0A435A722968FE230E8C0024F6
:1042E0001E40E1B2002E23D0321C012322411A428B
:1042F00016D0221C2868083252018218D079184240
:1043000003D1D279DA401A4207D0114BA200D0581B
:10431000002809D003681B6898470123A3409E43E7
:104320000134092CDDD103E0381CFFF769FAF4E70A
:10433000F8BDC0465C180020681800206C190020E9
:104340007C1600206418002080160020FF500041D9
:104350004018002008B50248FFF754FF08BDC046CA
:104360005F180020014A024B1A607047005000415C
:1043700068180020194B1A78D2092DD09A8B042185
:1043800092B20A420BD108210A420DD140210A42C1
:104390000AD120210A4207D110210A4201D0998373
:1043A0000EE080210A4201D0998311E08021802013
:1043B000490080000A4205D0998399829883188326
:1043C000022206E0024208D09883988299831983DA
:1043D0000122034B1A7000E0FEE7704700500041D5
:1043E0007019002038B5454800F0C2FA444B20212E
:1043F000DA690A200A43DA61062100F003FD0B2086
:10440000062100F0FFFC3F4B3F4A5A805A7852B2D7
:10441000002AFBDB3D4C0122237813432370A27852
:104420003A4BD007FBD4197882220A431A701978C4
:1044300080220A431A70A378022BFCD034490B68FF
:104440005A0B1F231A409A4200D105221A409001AC
:10445000258D304A2A40024322850868820C134089
:104460001F2B00D11D23208D1F2213409043034397
:1044700023850B680722DB0D1340934200D10323F1
:104480001340218D1A03244B0B40134323852378BB
:1044900004221343214A2370626223890C218B4337
:1044A0002381101C0023C11800220A6020338021C0
:1044B00089018B42F7D11A4B092001211A7000F0B3
:1044C00017FC0920012100F06DFC80235B00238391
:1044D00023831023238380239B002383228980232B
:1044E000DB0013432381C1220E4B9200995809022D
:1044F000090A995080221A6038BDC04675430000F1
:1045000000040040000C0040064000000050004144
:10451000246080003FF8FFFFFF8FFFFF9419002009
:104520007019002000E100E0014B18787047C04688
:10453000701900200E4B3820197B042319400D4BB5
:104540004A4251415A7849428243082002435A70F4
:10455000094B0A4A988902409A81C02292055868FC
:104560001140074A02400A4300205A607047C04683
:1045700000500041FF50004194190020FFF0FFFF60
:10458000FFFFFF8FF0B50E1C85B0351C03902B4943
:104590000120083501936D0184460C986C5C6346DC
:1045A00018400427BC4380002043254F6854700105
:1045B000C41963783F27BB43637067780B9B3A430A
:1045C000D2B26270DAB222716B5C019F0322934314
:1045D0003F0605D5624613436B544023A37104E0A4
:1045E000022213436B54402363710A7B154D04234D
:1045F00013402D185A4253415B42281C00212022AF
:1046000003241C4000F0D9FDA88903997F22904320
:104610001140021C0A43AA810F22164032020A49A5
:10462000AE8923070E401643AE816C68074A01200D
:1046300014401C436C6005B0F0BDC0460050004102
:10464000FF50004194190020FFF0FFFFFFFFFF8F94
:10465000034B4001181843689B0B9B034360704752
:1046600094190020074B4001C250890418188B0C84
:104670004168890B8903194341604268024B13402A
:104680004360704794190020FF3F00F0F0B5021C12
:10469000124C083253011F5D03250E1CAF432E4000
:1046A0003D1C35431D55002904D10D4940014018DA
:1046B00010230AE0012904D108495B18402119712F
:1046C00006E0074B4001C0180123037240238371A9
:1046D00002495201521810231371F0BD00500041DD
:1046E000FF50004110B5012910D0002902D0022945
:1046F00016D021E0114A400183181C7A1022081CB0
:1047000014421AD01A729A71012016E00B4A400125
:1047100083181A7A00200A420FD019721022F2E789
:10472000064B4001C218117A01230020194204D01F
:10473000102113729171E7E7002010BDFF50004176
:104740000120704708B50368014ADB69984708BD36
:104750001304000010B5041C0069FEF7FAFC201CCD
:10476000143000F00EFC10BD08B50069FEF709FD1D
:1047700008BD08B5143000F01FFC08BD08B51430A2
:1047800000F023FC08BD08B5143000F001FC08BDA2
:1047900008B50069FEF715FD012008BDF7B51D1C21
:1047A00008AB1B78041C009309AB1B78161C019303
:1047B00000234360FA239B008360094B0F1C0833DE
:1047C0000360143000F0BEFB009A231CC033276145
:1047D0009A70019A1E705D70201CDA70FEBDC04692
:1047E000C000020010B5041C0069FEF7D6FC0028CA
:1047F00007D02069FEF7E1FC011C201C143000F0FA
:10480000AEFB2069FEF7CEFC002805D02069FEF73C
:10481000CDFC2069FEF7BDFC10BDF023081C18403C
:104820003038434258417047F0231B011940802320
:104830009B0099420CD0C0239B00994206D0802354
:104840005B000520994204D0002002E0072000E030
:10485000062070470F231940012905D002394B4229
:104860004B410220C01A00E000207047F0B5031C45
:1048700085B00391C033041C182718783B1C4343B0
:104880001B4E0821F3185956151C00F0BBFA231CC7
:10489000C133187808214743F619715600F0B2FA6F
:1048A00001210A1C039B2069FEF7D8FC291C201C4F
:1048B000FFF7BAFF291C071C201CFFF7CBFF291CA0
:1048C000061C201CFFF7A9FF391C0090331C20692F
:1048D0000122FEF70FFC231CC3331978013B1A7821
:1048E0002069FEF723FC2069FEF741FC05B0F0BD0E
:1048F00020FE0100FEE7000008B5034B1B68002BFB
:1049000000D0984708BDC0467419002038B50F493B
:104910000F4CA14204D100F079F800F053F80BE0FD
:104920000C4D8D42F7D00023CA18E818A24204D2D9
:10493000006804331060F7E7FEE79042EBD0064BC7
:10494000064A9342E7D2002204C3F9E700000020A0
:1049500010010020F800020010010020981A002029
:1049600008B500F02CF8002801D100F01DF808BDB2
:10497000014B18607047C04674190020014B18683D
:104980007047C0467819002070B5041E08D0054B4A
:104990001D681E1C00F012F833685B1BA342F9D39C
:1049A00070BDC0467819002008B5034B1A68013263
:1049B0001A6000F097FA08BD7819002070470020AF
:1049C0007047704710B500F0EDF800F0BDFBFFF741
:1049D000F8FF0120FFF7D8FF084C201CFEF730FF3E
:1049E000201CFEF7A5FFFDF737FDFDF7E7FD044BA3
:1049F000002BFAD000E000BFF7E7C0465F180020A8
:104A00000000000008B500F0C5FB08BDF0B5524A33
:104A10001E21536808208B4302210B434F495360EA
:104A20008B694F4D03438B612B68141CD804400ED7
:104A30004C4B000418434C4B9861DA685607FCD580
:104A40004A4A012010701078C70704D547484078BB
:104A500040B20028F7DB01209060507840B2002877
:104A6000FBDB434E41484660507840B20028FBDBF8
:104A700082263E48F6014680507840B20028FBDB93
:104A800002209884D868C606FCD53A4E3648C662DD
:104A9000D868C706FCD52E68B00E3F2800D11F206D
:104AA0009F6A86023448384030439862986A334E91
:104AB000800A8002304398623148D862002098848E
:104AC000D868C706FCD52F4E27488684DE6826485E
:104AD000F706FBD5868C02273E438684D868C60637
:104AE000FCD500209060507840B20028FBDB264EB9
:104AF0001E48466056781D4876B2002EFADB1F6AC3
:104B0000224E3E401E621E6A8027BE431E62032361
:104B100083601F4B436053785BB2002BFBDB0023A9
:104B20000B721C4A4B728B72CB721B4BFF211A60AB
:104B30001A4A2B6812685801D20E014011439A0696
:104B4000520F12020B1C1343154A1385636880220F
:104B500013436360F0BDC0460040004100040040C4
:104B6000246080000606000000080040000C0040A1
:104B700001040100B805FF7DFF03FFFFFF010000F6
:104B800080BB0A1C2405000000070300FFFCFFFF98
:104B900003060100006CDC02880000202060800019
:104BA00000400042314BFA21186810B5890000F02E
:104BB0007BFA2F4B0138984224D82E4A2E4B506056
:104BC000186AC0210002000A090601431962002484
:104BD000072194601160196A80220902090A1206ED
:104BE0000A431A62254BFC211A6A0A431A62196A9F
:104BF000FC2292010A431A62196AA022D2020A43D5
:104C00001A6200E0FEE7201C0021013400F070F879
:104C1000162CF8D11A4C63785BB2002BFADB194BD7
:104C20006380194B5A7ED209012AFAD0E422D200BD
:104C30009A803F22DA70597E134AC9090129FAD0B5
:104C4000C0235B0100201361907000F023F86378AB
:104C50005BB2002BFBDB0D4A094B5A800C4BDA7917
:104C6000D209012AFAD041225A7010BD88000020D2
:104C7000FFFFFF0010E000E000ED00E00004004056
:104C8000000C00401E400000004000422140000097
:104C90000048004200B5144A517E131CC90901297D
:104CA000F9D00138042813D81969104A0A401A614A
:104CB0005A780F218A4300F0EDF903050907030034
:104CC000012102E0032100E002210A435A700AE0B8
:104CD0001169F0231B050B43136153780F218B439C
:104CE00002210B43537000BD00400042FFFFFFF064
:104CF00010B51824021C201C5043274B1818007AAA
:104D000040B2013046D0032944D8081C211C00F0D1
:104D1000C1F902331121624398569A18C3011F4802
:104D200052681B18991840310220087001219140E7
:104D300059602FE06243985618499A185268C30187
:104D40005B18991840310620087001219140596084
:104D500099611FE051435A56104859184B68D201C7
:104D60001118C8184030062404700120984048608B
:104D70000B49521850600DE0624398569A18C301CF
:104D8000064852681B18991840310220087001210A
:104D90009140996010BDC04620FE010000440041D2
:104DA0001044004118235843134AF0B5131808243F
:104DB0001C5701341FD08256104ED2015D68012469
:104DC0009019231C8668AB401E420BD10E1C771E27
:104DD000BE41401934404030A50004780426B44355
:104DE0002C430470002903D105495218536002E096
:104DF000024E92199361F0BD20FE01000044004173
:104E00001044004118224243F8B52D4D0824AA1839
:104E10001457031C621C50D0481C00240C284CD88A
:104E200000F038F9071E1E1E1E1E1E1E1E0A0A0A4C
:104E30000A000124644240E0092902D1181C002123
:104E400003E00A2904D1181C0221FFF751FF23E0D7
:104E500000240B2931D1181C0121FFF749FF2CE058
:104E600018225343EA185268EB560120141C0440E0
:104E70005508DB01002C11D0124C1B195D1930357F
:104E80002E780C010F21314021439A18C9B22970A4
:104E9000403213781843107000240EE0094E0F279B
:104EA0009B195D1930352E789A18BE433143C9B22B
:104EB00029704032137818431070201CF8BDC0468A
:104EC00020FE010000440041014B18607047C046BD
:104ED0008C000020024B012252421A607047C046EB
:104EE0008C000020114A1368591C1DD0013B13602F
:104EF000002B19D172B60E4B1A7DD107FBD5198B39
:104F00002022FF320A431A830A4ADA610A4A1A80C7
:104F10001A7DD107FCD5BFF34F8F084A084BDA60E2
:104F2000BFF34F8FC046FDE77047C0468C0000209E
:104F3000004000410210000002A5FFFF0400FA0536
:104F400000ED00E010B50021041CA42200F035F9AA
:104F5000221CA4320023201C1360536010BDF8B53E
:104F6000051CA4352E68041C0F1C701CA42100F025
:104F7000DFF8231CA8331B68994201D0A75529608C
:104F8000F8BD021C0023A432A830136003607047F0
:104F900038B5021C041CA834A4322368126893425A
:104FA00007D0C55CA421581C00F0C2F8281C216061
:104FB00001E00120404238BD031CA433A8301A6828
:104FC0000368D01A00D5A4307047031C021CA83314
:104FD000A4321B681268934201D0C05C01E001203A
:104FE0004042704770B544680E1C0025002C09D063
:104FF0002368201C5B68311C9847002804DB2D18AF
:10500000E468F3E7281C01E00120404270BD38B598
:1050100044680D1C002C08D02368201C9B68291CA8
:105020009847002802D1E468F4E7201C38BD38B561
:1050300044680D1C002C07D02368201C291CDB6849
:105040009847E4682D18F5E72C7038BD38B54468EA
:105050000D1C002C08D02368201C1B68291C9847B5
:10506000002803D1E468F4E7201C00E0012038BDEB
:10507000064B0122196810B51140054805D10224DC
:1050800004700424447041601A6010BD841900202B
:105090007C19002002B4714649084900095C4900A6
:1050A0008E4402BC7047C046002934D00123002240
:1050B00010B488422CD301242407A14204D2814297
:1050C00002D209011B01F8E7E400A14204D28142A7
:1050D00002D249005B00F8E7884201D3401A1A4324
:1050E0004C08A04202D3001B5C0822438C08A0425B
:1050F00002D3001B9C082243CC08A04202D3001B11
:10510000DC082243002803D01B0901D00909E3E78A
:10511000101C10BC7047002801D00020C04307B409
:10512000024802A14018029003BDC04619000000C9
:105130000029F0D003B5FFF7B9FF0EBC4243891A2E
:105140001847C0467047C04670B50E4B0E4D002440
:10515000ED1AAD101E1CAC4204D0A300F3589847C2
:105160000134F8E700F0BAF8084B094D0024ED1AB5
:10517000AD101E1CAC4204D0A300F3589847013474
:10518000F8E770BDF4000020F4000020F4000020D7
:105190000801002008B5034B011C186800F016F840
:1051A00008BDC046F000002010B50023934203D094
:1051B000CC5CC4540133F9E710BD031C8218934240
:1051C00002D019700133FAE77047000070B503236D
:1051D000CD1C9D430835061C0C2D01D20C2501E089
:1051E000002D3FDB8D423DD3204B1C681A1C211C37
:1051F000002913D00868431B0DD40B2B02D90B6078
:10520000CC181EE08C4202D1636813601AE0486833
:1052100060600C1C16E00C1C4968E9E7144C20681F
:10522000002803D1301C00F025F82060301C291C18
:1052300000F020F8431C15D0C41C03239C43844277
:105240000AD12560201C0B300722231D9043C31A6E
:105250000BD05A42E25008E0211A301C00F00AF844
:105260000130EED10C233360002070BD8C1900207A
:105270008819002038B5074C0023051C081C236042
:1052800000F012F8431C03D12368002B00D02B60E0
:1052900038BDC046941A00200023C25C0133002AA6
:1052A000FBD1581E70470000094A1368002B0CD030
:1052B00018186946884202D81060181C7047054BC0
:1052C0000C2201201A604042F8E7034B1360EFE71D
:1052D00090190020941A0020981A0020F8B5C046B2
:1052E000F8BC08BC9E467047F8B5C046F8BC08BC80
:1052F0009E4670474572726F722067657474696E5E
:10530000672064657669636520646573637269709C
:10531000746F722E004572726F7220696E204F5545
:1053200054207472616E73666572004661696C65C3
:105330006420746F206765742064657669636520F6
:10534000494421005265616479212057616974697B
:105350006E6720666F722054656772612E2E2E0074
:10536000466F756E642054656772612100446576EE
:105370006963652049443A200053656E64696E672D
:10538000207061796C6F61642E2E2E0053776974E2
:105390006368696E6720746F20686967686572204A
:1053A0006275666665722E2E2E0054726967676597
:1053B00072696E672076756C6E65726162696C6980
:1053C00074792E2E2E00446F6E65210030313233F9
:1053D0003435363738394142434445460008004F9A
:1053E000E270109FE5010050E11000000A28208FB4
:1053F000E264309FE51440A0E32000B2E82000A35F
:10540000E8044054E2FBFFFF1A50209FE5012042D0
:10541000E04C309FE540409FE514FF2FE1F000B0E5
:10542000E8F000A1E8102052E2FBFFFF1A13FF2F63
:10543000E130D09FE530009FE5F00000EBFEFFFF7C
:10544000EA00000000000000000000000000000072
:105450000000000000000000000070004000FF039A
:1054600040D01902405470004000700040C2190240
:1054700040000000000000000000000000000000EC
:10548000000000000000000000000000000000001C
:10549000000000000000000000000000000000000C
:1054A00000000000000000000000000000000000FC
:1054B00000000000000000000000000000000000EC
:1054C00000000000000000000000000000000000DC
:1054D00000000000000000000000000000000000CC
:1054E00000000000000000000000000000000000BC
:1054F00000000000004943544336303400000000EF
:10550000000A2020202020202020202020202020D1
:1055100020202020202020202020205F5F5F0A20E4
:10552000202020202020202020202020202020207B
:1055300020202020202E2D2720202060272E0A200A
:10554000202020202020202020202020202020205B
:10555000202020202F2020202020202020205C0A16
:10556000202020202020202020202020202020203B
:1055700020202020207C2020202020202020203BB4
:105580000A20202020202020202020202020202031
:105590002020202020207C202020202020202020AF
:1055A0007C20202020202020202020205F5F5F2ED4
:1055B0002D2D2C0A202020202020202020202020DB
:1055C0005F2E2E5F20202020207C3029203D2028A7
:1055D0003029207C202020205F2E2D2D2D27605F5C
:1055E0005F2E2D2820285F2E0A20202020205F5F9C
:1055F0002E2D2D27605F2E2E20272E5F5F2E5C2004
:10560000202020272D2D2E205C5F2E2D27202C2EB4
:105610002D2D27602020202020602222600A2020BB
:10562000202028202C2E2D2D2760202020272C5FA5
:105630005F202F2E2F3B2020203B2C20272E5F5F2A
:105640002E2760202020205F5F0A202020205F601E
:1056500029202920202E2D2D2D2E5F5F2E27202F53
:10566000207C2020207C5C2020205C5F5F2E2E2D63
:105670002D222220202222222D2D2E2C5F0A2020B6
:1056800020602D2D2D27202E272E27272D2E5F2E13
:105690002D27605F2E2F20202F5C20272E20205CBE
:1056A000205F2E2D2D2727606060602727272D2D56
:1056B0002E5F602D2E5F5F2E270A202020202020C5
:1056C0002020207C207C20202E27205F2E2D2720AC
:1056D0007C20207C20205C20205C2020272E202085
:1056E00020202020202020202020202020602D2D60
:1056F0002D2D600A202020202020202020205C202A
:105700005C2F202E2720202020205C20205C2020C1
:1057100020272E20272D2E5F290A20202020202020
:1057200020202020205C2F202F202020202020201F
:10573000205C20205C20202020603D2E5F5F6027C1
:105740002D2E0A20202020202020202020202F2045
:105750002F5C2020202020202020206029202920AC
:105760002020202F202F206022222E605C0A202063
:105770002020202C205F2E2D272E275C205C20202F
:105780002020202020202F202F20202020282028EB
:1057900020202020202F202F0A20202020202060C1
:1057A0002D2D2760202020292029202020202E2D6B
:1057B000272E27202020202020272E272E20207C47
:1057C00020280A20202020202020202020202020E7
:1057D000282F602020202028202860202020202022
:1057E00020202020202920292020272D3B20202078
:1057F0005B737769746368627265775D0A000000A5
:10580000001010A0E30020A0E30200A0E302C1A06A
:10581000E3F0412DE9C4309FE5C4409FE53010839B
:10582000E5C0509FE5002483E5C52C84E20B20826F
:10583000E2052042E03210A0E10360C2E3A8209F0D
:10584000E5282083E5112C42E2112042E22CC0839E
:10585000E5000051E3300083E5282083E50731416E
:10586000E2133085E00800000A011F61E011108397
:10587000E078009FE5030040E0002093E5002083EE
:10588000E7043043E2010053E1FAFFFF1A60709F22
:10589000E5016166E20E6986E20710A0E154209FEF
:1058A000E50600A0E1170000EB0010A0E1050044B0
:1058B000E0011181E240209FE5021981E2000086AB
:1058C000E0100000EB8420A0E330109FE530009F43
:1058D000E5480000EB0FE0A0E117FF2FE1FEFFFF1E
:1058E000EA00600060B85401403C77004044440046
:1058F00020FC7F0340008000407ADD000008C500E6
:10590000009470004094800040F0432DE900405224
:10591000E20400A0011800000A0020A0E10130A06C
:10592000E30000A0E30050D2E5010000EA040053C8
:10593000E11100002A03C0D2E7016083E20C0055A8
:10594000E100C0C1170630A01101008012F6FFFF70
:105950001A06C0D2E706E082E000005CE30070A017
:105960001301906E120700001A023083E204005304
:10597000E10050C1E7010080E2EDFFFF3AF043BDD6
:10598000E81EFF2FE101C0FEE57F800CE280001CD5
:10599000E30E3089E0877388E1F9FFFF1A06308350
:1059A000E00060A0E306C0A0E1038082E001E0D84F
:1059B000E47F900EE280001EE3016086E28CC389E2
:1059C000E1F9FFFF1A000057E3063083E0D6FFFF3E
:1059D0000A0CC040E000E081E00CC081E00E80874E
:1059E000E00160DCE40160CEE40E0058E1FBFFFF63
:1059F0001A070080E0CCFFFFEA0F0052E3360000F8
:105A00009A013080E1030013E33F00001A10C04206
:105A1000E2F0402DE9204081E20FE0CCE31030813C
:105A2000E2106080E20E4084E02C52A0E10CE01312
:105A3000E508C013E5107013E50CE006E5103083AF
:105A4000E214E013E5040053E1005006E91070068B
:105A5000E5106086E2F4FFFF1A01C085E20C001237
:105A6000E30F3002E20C1281E00320A0010CC2809F
:105A7000E00D00000A0140A0E1043043E20360C3EE
:105A8000E323E1A0E106608CE004304CE204509492
:105A9000E40450A3E5060053E1FBFFFF1A01308E3A
:105AA000E2032002E203C18CE0031181E000005216
:105AB000E3013042E20130831201204C12033081B5
:105AC000100300000A01C0D1E4030051E101C0E26B
:105AD000E5FBFFFF1AF040BDE81EFF2FE10000527A
:105AE000E300C0A0E1013042E21EFF2F010130833C
:105AF000E201204CE2033081E001C0D1E403005117
:105B0000E101C0E2E5FBFFFF1A1EFF2FE100C0A08C
:105B1000E1013042E2F4FFFFEA6708004FE2701053
:105B20009FE5010050E11000000A28208FE2643058
:105B30009FE51440A0E32000B2E82000A3E8044061
:105B400054E2FBFFFF1A50209FE5012042E04C3059
:105B50009FE540409FE514FF2FE1F000B0E8F00022
:105B6000A1E810205267052413FF2FE124D09FE500
:105B70002C009FE5011021E028209FE5002042E055
:105B8000EA5F00EB2C0000EBFEFFFFEA00D0A0E193
:105B90001EFF2FE10080004000FF0340D08A02403A
:105BA000548000670508CE910240000000006704A1
:105BB00004670808671010672020674040670404E6
:105BC0004943544336303467070E0FE11F00C0E3EA
:105BD000D30080E300F029E1D2F029E364D19FE50E
:105BE000D1F029E35CD19FE5DFF029E358D19FE5AF
:105BF0000FE0A0E1410000EB1D0000EBBF5F00EAF9
:105C0000FEFFFFEA44019FE544119FE5001080E597
:105C100040019FE50E10A0E167040C380167068281
:105C200020342167068220A25F00EBE4FFFFEA2810
:105C3000019FE528670730EFFFFFEA18019FE51C89
:105C4000670710EBFFFFEA08019FE510670710E701
:105C5000FFFFEAF8009FE504670710E3FFFFEA0093
:105C6000C00FE1C0C0CCE30CF02967068264670571
:105C7000108C670A10D0A0E104004EE201E0A0E120
:105C800000104FE19FF021E303002DE90C502DE9B6
:105C90000D00A0E108D04DE292F021E3006020E980
:105CA00067041CACC0670681581CFF2FE1DFF021A0
:105CB000E367042420D08DE2D2670424D0A0E11C45
:105CC000009DE500F06FE10F50DDE80000A0E11855
:105CD000E09DE50EF0B0E1331900EB74009FE57430
:105CE000109FE5001280E570109FE5041280E564C6
:105CF000109FE5086707080C1280E560109FE5100B
:105D00001280E54C109FE5141280E554109FE518B1
:105D10001280E550109FE51C1280E5670581340074
:105D20000467058428FCFF034045565030F467079C
:105D30008434CE910240F8FF03405253540055443E
:105D400046005041425444414254F9E6004000F0BC
:105D5000006090810040A0810040B0810040C0817F
:105D60000040F08100405882004030B51B2083B0D5
:105D70000E4C0E4D01F0BDFD0021002001F027FE6C
:105D80002A0021000B4801F06AFF08220A4B21007B
:105D90005A6009482300094A009501F060FF0FF09E
:105DA00028F903B030BC01BC0047FFCC00FFCCCCCD
:105DB000CCFF3C3702401C8B0240E4390240CCFF50
:105DC00000FF10B567044C0FF079F8034B00F006A4
:105DD000F81067052EC046008000401847C046F006
:105DE000B54E4657464546DE46E0B58368061D80FB
:105DF000468A46914683B0B34259D01D00083D9E65
:105E00004255D0002300932E4B019304339B462D23
:105E10004F07E04A466B681360EB686706202CD09A
:105E20002C682378692B14D16378642B11D1A37863
:105E3000002B0ED1019B1B79002B1ED069680B78BB
:105E4000002B1AD0584617F047FE002815D14346BC
:105E500000932100380017F03FFE0028D8D0210021
:105E6000194817F039FE002814D152670D5AD2D1C3
:105E7000009B002B15D0009803B0F0BCBB46B24687
:105E8000A946A046F0BC02BC084721000D4817F007
:105E90001EFE0028BAD168680FF04DFB0A4B9862CD
:105EA000B4E700234A46136052461360064A009343
:105EB0009362E0E7C0469480004098310240A031F0
:105EC0000240AC310240D88A0240F0B5CE46474687
:105ED00080B587B00AF059FE012800D1CBE000253B
:105EE00004A90720039504950EF013F9192003A9BE
:105EF0000EF02DFA049A531E9A41C82352421340C1
:105F0000754A9446039C634401229C4200DCBCE039
:105F1000120600D0AFE063425C41002C00D0AAE042
:105F20008020400101F0B7FCB92105006B4B2A002D
:105F300089006A4813F0C3F86A4801F0ACFC060017
:105F4000BD20800001F0A7FC0700BD2001216706ED
:105F50000CBD22290092008046380017F0C4FABD1B
:105F6000239B00E9185E4A300017F0BDFA280001B3
:105F7000F0A8FC049B5A4253410493FA239B00254A
:105F8000009946FA2004F07BFB002305A9072005B1
:105F9000930EF0BDF803A919200EF0D7F905990A60
:105FA00000670A812E494A9446039A63449A4252F2
:105FB000DC049B002C16D0994209D0484B0C2200DF
:105FC00093102300295ED01521380001F0DFFF0671
:105FD000F0EFF8A8425BD9059B002B6FD005F0D4F9
:105FE000FE0599049B994206D1016705843E14F889
:105FF0000024C00728D505F0F7FB05F0D3FEB42335
:10600000A0229B001900D20001F09EFC344B2622F6
:10601000009315211023300001F0B8FF67044640BB
:10602000D02E670568670416670464ADFF05F07736
:10603000FA4946642005F095FA06F0B7F8012427DE
:106040004BC5180EF0B2FF062802D0059B049392B0
:10605000E7002C2DD16704442EFC6704342BFC4050
:106060004601F028FC01200EF07FFB07B0C0BCB950
:1060700046B046F0670585422A1C40E715216704B3
:106080002080FF9FE7049A059B9A42D36705812EE3
:106090000EF0BDFFC007D2D5CCE70D6709810267BE
:1060A00004286CFFBDE705F06700FECEE7670450EB
:1060B00057FB03200FF056FA88E7C0461C0C00007F
:1060C0004E0C00002C0302405A090000B2040000EC
:1060D000CA040000983A000010B582B001A80EF082
:1060E00079FB002818D06B461B791B072FD1670658
:1060F000081B0F042B18D011D8012B1BD0032B0920
:10610000D12023164AD1780B43D3706B465B791BA1
:10611000075B0F137102B067068672052BF9D10F6A
:106120004B104A1A60F5E780230F4A11681B060BD3
:1061300043136067044A084A1B0953670534DB07A9
:10614000DB0F9370E4E7044C84220021200017F059
:106150000FFA01232370C6E79480004030E50070F9
:106160005450414E50E4007070B5784E3368784A10
:106170001B031D0B1268774B774C9A4204D1802386
:10618000226B1B0613432363744B754A19689142B3
:1061900006D18022216B52040A43226300221A6036
:1061A000704B1B68012B07D012F06AFE236B002B8B
:1061B0000DD170670581206B1EFE2BF4D81F3B01AB
:1061C0002BF1D91023226B670444ECE71B2001F06C
:1061D00076FB0021080001F0E0FBFA2196208900FF
:1061E00005F0B5F9236B1B0751D4236BDB074AD4A9
:1061F000236B5B0743D40523226B1A423BD1670410
:10620000544CDB236BDB012B670420060DD455486F
:1062100001F0A0FDFA20800005F0D2FF0EF0CEFEC6
:10622000FA20400005F0CCFFC1E70F2031680A0DCD
:106230000B0E090F02400C010C43110403400C43E8
:10624000120514431A0214431B031C43464801F071
:1062500081FD2B0021004548454A01F0E5FCD6E7C9
:10626000444801F077FD236B1B0740D5424801F0FD
:1062700045FCC9E7414801F06DFDBFE7404801F02A
:1062800069FDB7E73F4801F065FDB0E73E4801F022
:1062900061FD0522236B93432363A5E73B4A344BFF
:1062A00012683B483B4901F0BFFC3B4B3B4A1B6833
:1062B000934241D011D93A4A934239D0394A934254
:1062C00002D1394801F046FD2B4801F017FC0023AC
:1062D0001E4A1360304A136093E7344A934223D036
:1062E000334A9342F0D1334801F034FDECE780218A
:1062F000B020314A890300060DF038FC00281FD079
:106300002E4B2F6705827CB0D199682D4B4A1E9A7F
:1063100042ABD82C4A2D480DF028FC0028A5D167A7
:106320000558FDA1E72A4801F013FDCBE7294801F4
:10633000F00FFDC7E7284801F00BFDC3E727480130
:10634000F007FDDBE7A4910267098C60D88A026739
:10635000098400A0910240403302400833024020EB
:10636000330240CCCCCCFFA432024010750240185E
:1063700032024000320240E4310240C4310240F4B3
:10638000FF034038670414DDFFFF67088D184441A0
:1063900042545041425494320240554446005744BE
:1063A000540064320240CC6704280018B0444247CD
:1063B00043FEFF0700DC3202400C0018B0EC320252
:1063C000408C3202409C32024084320240BC67045E
:1063D0006CB5124CC8B06946200016F0F3F80028DE
:1063E00009D16B461A7B202313400D4A126A002AFA
:1063F00005D1002B0BD1486707857E002BF9D120F2
:1064000022202167042E82FAF3E7002120002032A7
:1064100016F07CFAEDE7C046543367068B14F8B5E6
:1064200000213E480DF061FB051E50D00DF04FFBE2
:1064300001F001FEFA213A4F8900386905F079F838
:106440009C231020EB5819061A0EC3410A43190663
:106450001B0E0B43C3411343334A934246D9324E7A
:106460003A6B3468324BE250002320216360304A9B
:10647000D37819422ED12F4A94462F4B5B68634440
:106480002F4A23602F4BE2500DF051FA2E4BE05073
:106490000DF043FA336801882C4A995041882B4A01
:1064A0009950816705062B4A2B4811689268181885
:1064B000521A16F0F9FF09F031FA04F05FF80020E3
:1064C00004F06CF80BF0B6FD00F04EF8F8670581AB
:1064D0005C8B43D370402361680B43636013796125
:1064E000670587586360C4E7002102233A6B080000
:1064F00013433B6301F041FA184801F01CFC1748B4
:1065000001F01967050616FC6706861448FE0EF0B2
:1065100044FDA0E7C0466067078208FF3235312896
:106520000302400480830094800040D0CFCFFF1846
:106530008100404E595830EC6F8300F06F8300F4B7
:106540006F8300F86F8300FC6F83007C800040083D
:1065500080000078330240A4336706841C2847C0BB
:106560004610B50400C02094220F49000616F0968C
:10657000FF0E4B0F4A1A600F4A5A600F4AA2189A30
:10658000600D4ADA60E023DB019C4202D06706839B
:10659000280A4B22001968094816F07FFF094B09A9
:1065A0004A1A60F2E76706902C7C0000C060FF008A
:1065B000400070004000000140D48A0240A000006A
:1065C000C000E003404D41524410B505223C210477
:1065D0002005F00AFD040000226867050C04FD0E8A
:1065E000F0B8F8240706D51A4B5B69012B05D003D8
:1065F000200EF09BFF67066E01F012FD05F0A6FB72
:10660000144B0324984211D1962005F0C1FD0021BE
:10661000642004F083FF67040EBAFD013C002100F2
:106620002004F07BFF002CEED1DFE70A200A4904AA
:10663000F074FF094967042670FF9667058244A637
:10664000FD0020064904F068FFCEE7C046D88A0264
:10665000405020000088130000A8610000204E0078
:1066600000F0B557464E670791685C4CA54404009E
:106670008C231934FF3400915B006178C35C0902FC
:106680001943A378E4781B040B4324061C4313002E
:10669000544E3768591E8B41E11B4D1EA9411940CC
:1066A0000023BC420FD00B431C1E6DD101242000DF
:1066B00097239B009D44671091181D33FF33C35CE3
:1066C0001D30FF300400407800021867075624068A
:1066D00003432000240E18431B061C431023D841FB
:1066E000984603069946A4464C46030E2343444667
:1066F000E341644623437468A2467768746875680A
:10670000AB4655462D0EAA465D462D06AB46019377
:1067100055465B461D433B02FF27AA461D003F042A
:106720003D40670422670414230AFF2467041424ED
:106730000225670914019B9B46AB459B415B4200C8
:106740002AA4D172687568A8467568AC4645467635
:1067500068120E360632432E02654658463E4032D7
:10676000432E0A34402243904290D9002492E701FC
:1067700021842001F05BF8060000990A2202A81487
:10678000F0D3FF124B19689A6802A8521A00231519
:10679000F07FFA0F490023062202A815F079FA9437
:1067A00022002367040A9AFC002384223100670434
:1067B0000C6EFA6704067DFC300001F048F868E7CB
:1067C000C046A4FDFF670585447C800040C83302B5
:1067D00040F0B5C64600B55E4C05000E00A544006D
:1067E0002A6700D167069574ADF801222900670475
:1067F0007698FF071E00D076E0069B9846C0239B44
:1068000002984559D3D02443462406E41A514B1C20
:1068100060514B5B6A002B00D06FE00023424621A1
:106820006705780CF9002835D167040A3FFC002E73
:106830004BD0002229002000FFF700FF00282ED1B6
:106840000DF026F967064A5ED28422424942481674
:10685000F00BFE10204444043C21680A060B0EC1D4
:106860004113430A06090E1143C141002019430E8A
:10687000F0DDFA0BF0BFFB002E5BD1C0231B06003E
:10688000F07DF80022354B36485A6201F03FFA0499
:10689000E067046C09FC002EF3D096670584108035
:1068A000BCB8670791221B2000F0D8FF93E72C4C5F
:1068B000670A8120BCF80028AFD0E4E70DF0E1F8CA
:1068C0006706810A19D240460F230F309843FFF71D
:1068D00027FEB8E700221E4B20485A6220492A00B2
:1068E000204B01F06DF9D0E767043AD7FB184B1D38
:1068F000485F6201F004FAC7E7E0204134C001FFBD
:10690000F70EFE200016F0BFFF011F0422611801E0
:10691000A816F0A3FD012001990EF081FA0BF06397
:10692000FB002EA3D08023104A1168DB050B431314
:1069300060094B00F01CF8A9E7C046A8FDFFFFD492
:106940008A6706887094800040340100C01C8B0266
:1069500040143467068758D03302400000FF6705B3
:106960009854F433024024B3017067069830DE4631
:10697000454657464E46E0B589B002AB1B209846C7
:106980001B605B6000F062FF0021002000F0CCFF84
:106990000DF01EF8002814D1894801F00DF9894B3B
:1069A00098460DF069F80023424693620EF0CEFA45
:1069B00009670D974E01BC00470DF0DBF800227F00
:1069C0004940460EF036FE7E4800F015FF042303D2
:1069D000607D4B4360062301224361036543467A91
:1069E000498262C2637A4AC162026479497A4A5B27
:1069F0006804008163C264434500D188E01D000C37
:106A00003D984500D183E0744B05269A466F693B5B
:106A100000FE3B012B19D92B6851461800994617E7
:106A2000F006F8002811D04A46B3009B199B00E3FA
:106A3000181F605A60DD60052F01D1AA699A607342
:106A40001C033E3D2E00D99EE01E002B69670650B8
:106A5000DBD1B00080198000052E43D9142200211B
:106A6000201816F045FD5D4B0593002304A80693FE
:106A70000793049401F04CFC05000EF0F7FE0700AC
:106A8000002D00D186E0002859D1AB682A1D91461F
:106A9000934232D01E00083E9A422ED0002301932A
:106AA0004F4B9B46444B98464E4B9A460CE0390060
:106AB000504616F0BBFF002801D173680193F368BC
:106AC00067042C994525D037685846390016F0AD33
:106AD000FF0028EBD170680EF0DCFC434637689865
:106AE00062E4E70300013614300522E3181A603D22
:106AF0004A5A603D4A9A60B0E72F4B984620000002
:106B0000F090FE28000FF0B5FB44E77820062664DD
:106B100023EAE701980028F1D00DF0E3F800283EC1
:106B2000D06704247E670524A3FB002800D030E74B
:106B30000CF046FF0DF01AF82BE7002D2867052012
:106B40006EFE002F2DD07B1C07D0012200213800C3
:106B5000FFF727FE174B98461AE700210C342368ED
:106B6000AB4204D0013114348E42F8D10021104BD5
:106B70000022984628005B6A02F043FC08E71E00EA
:106B80006708823400D964E7A7E767045245FE0C22
:106B9000F06700FF01E7134801F0A3F8C5E72800FC
:106BA0000FF063FB024B9846F0E630346706850829
:106BB000443402403C050000603402406834024026
:106BC00074340240559400403192004084340240B5
:106BD000A83467069B40983102408C346706915474
:106BE000C0340240F0B5DE6705851245670585149F
:106BF0001B2002AF3F607F6000F019FE6706851220
:106C000083FE0CF0D5FE00280AD10EF08FF9671232
:106C1000847E012238006D490EF0F9FC002800D175
:106C200086E0A020C00000F0D4FD04230360686764
:106C300005850243617B680400BB422CD01D000C1B
:106C40003D9F4228D0634B02269A466B699846675F
:106C50000E846416F0D4FE002811D04267098464C3
:106C60001A604A465A604246DD60052A6708846811
:106C70003D2E57D8670884649F42DBD1022E06D888
:106C8000504801F016F8200000F0AFFDAAE76706B3
:106C90008242670884720CFC49670F847213FB05FB
:106CA000000EF0BEFD0700002D70D00028316705F2
:106CB00084709046934262670784705E67058470B3
:106CC0003C4B99463C4B9A463C4B9B6709847083EE
:106CD000FE670E8470984532D03768486705847027
:106CE00075FE67088470A4FB5B469862EDE72F4849
:106CF00000F0CAFF61E71E00ABE7002D3A6705848C
:106D0000205EFD002F3DD07B1C056709842017FD08
:106D1000506715841C1E4B01226706841A36FB3F00
:106D2000E7019B002B12D018000CF09DFF002818E3
:106D300067054C38FD28000FF05DFA002800D02EC2
:106D4000E70CF000FE0CF0D4FE29670584362A67B4
:106D5000051C4FFA2267050E23FD20E70C4800F0C2
:106D600083FFEB6705844043FA16E7D434024060A2
:106D70003402670584201C3502400835670A8424E4
:106D8000D88A0240E434024067068424C646A02024
:106D900000B5C00084B000F0E6FC07001B2000F046
:106DA000086705A26A00F072FD0CF0C4FD002843DC
:106DB000D08020400000F0D6FC02000500424B13BA
:106DC000CB13C203CB03C200230022002128000EF4
:106DD000F0C3F88046002819D004233B603B4B3AAF
:106DE000007B60062300217B610326030028320814
:106DF000E05360D360013101331660FF3314323E3B
:106E0000291FD01C78002CF3D100294CD130480028
:106E1000F025FF380000F0BEFC404600F0BBFC0C43
:106E2000F0DDFD280000F0B6FC0EF042F804B0677B
:106E30000A8C3E670426ABFC0025EDE7A020C06766
:106E4000058408381816F008FB204B0193002368CE
:106E50004600970293039301F00FFA0600380000F2
:106E60002E22D000F09367055690FC280016F0B54E
:106E7000FC022216490400281816F099FA30001670
:106E8000F0ACFC01342C193100421C200016F08FAC
:106E9000FA0167058152FFF73AFCBBE7880040180A
:106EA00080002830CAE700F070FC280000F06D6711
:106EB000054C6AFC0CF08CFDB2E7C0463435670621
:106EC000826860350240483502405C350240124B12
:106ED0001A6870B5520006D51A6810490A401A603F
:106EE00067069C4C0E4C0021200015F0E7FA0121AA
:106EF000021E03D12000FFF707FCF0E7802080008E
:106F000000F02EFC050001222100FFF735FB67048D
:106F10006A38FCE3E7C04624B30170FFFFFFBF748B
:106F200035670C87500024E0B593B00B940C94FFA8
:106F3000F7C8FF0522A84B03931B781A400492055B
:106F40002A01D1039AD472A44A92469B0701D40124
:106F500023536210AB0EAD98462D606D601B605BD5
:106F6000600CF0B1FD002228009D490EF00CFB00E2
:106F70002800D119E16B68AB4200D189E01C000CFC
:106F80003C9D4200D184E00026964B9946964BB337
:106F900046069304E0236967061A18D06369032B39
:106FA000F7D1002E00D075E02068069916F0E8674A
:106FB00005881EE1E0049B052B00D19FE001239C86
:106FC00046670430E344670432E6D100244B465B55
:106FD00069002B04D0039B1B78DB0700D444E20438
:106FE0009B053B5A4253414A465268002A00D08EC4
:106FF000E0002C00D091E0002B00D187E1002301BC
:1070000022404678490C930EF0BBFA002821D04369
:10701000465B6843451DD01C000C3C984519D001C7
:10702000256F4E049F6369032B0ED1310020681633
:10703000F0A5FC002808D0052F00D184E14B461BA9
:107040006705815036E101356706813A9845E8D1F8
:107050000023524653620C22039B1B781A4200D035
:10706000A1E04A46002393625F4A1368DB00DB0815
:107070001360FFF74AF91367118A06544B99469C2F
:10708000E7049B052B31D067045A5B4500D08CE7A1
:10709000A368221D9342916705A80C9A4200D18CE7
:1070A000E74E4B05934E4B9B4653464D4FDA4606F3
:1070B00093A346140007E06B680C936706A7389CFF
:1070C0004200D1CAE12E683800310016F04DFC00B4
:1070D00028F0D03100059816F047FC002800D01B9E
:1070E000E16B680B93E8E720000BAA0CA9FEF7BE42
:1070F000FD002800D157E704005EE7002C00D173A3
:10710000E7002B00D170E720000EF04EFB039B1B25
:107110007806009B0744D5431C00D11DE14B460077
:1071200021186904F073F9002E00D174E1731C007A
:10713000D1BCE1002230001100FFF7D4FA52460022
:10714000232848536200F0D0FC4B46FA2118698985
:107150000004F05CF9FA20400004F092FF0DF08E7C
:10716000FE6D67058156059293423FD101239C46EF
:10717000670464E344DB0705D54946039A53780B5B
:107180006093784B60FFF78DF80126F5E60E4B997A
:107190004654E700217432134816F047F957E74B7D
:1071A000469B68002B00D0D6E0431C00D1D3E00DF5
:1071B000F050FE0228B6D1416707A86C1C8B670609
:1071C0008D4CD88A67068918D434024050E4007088
:1071D000986707A900A0310240303402409880002F
:1071E000401E00059A083E9A42BAD0B84907915904
:1071F00046B74BB84A08915146A34692461C00092F
:107200009137682000390016F0A9FB002872D0677A
:10721000068B40A367070C079816F09D6705855AF3
:1072200088E03900AB4816F09667050EE3E03900B8
:10723000A84816F08F67050E13E13900A64816F02E
:107240008867050E1AE13900A34816F08167050E1C
:1072500029E13900A14816F07A67050E28E13900C6
:107260009E4816F07367050E0BE1F3686708811EF0
:10727000BBD1089B5C469B46099B9A46656705AA5D
:1072800064A568271D9362BD4200D12AE7924B98FE
:1072900046924B0493924B9B464346083DA0461CA6
:1072A000000367058412ED68083D2B0008339F42F8
:1072B00000D1D5E02E68206705841443FB0028EF39
:1072C000D03100049816F03DFB00287ED16706847B
:1072D00012002C00D19FE602E770680EF065F84BB3
:1072E000461860BD67050C5FF84B465860B7E7313C
:1072F0006705817E2467059136C8E668680EF052FE
:10730000F84B469862C2E66708844C986705872464
:1073100077E60400DFE667043A42F84B461428009B
:10732000D986E0986097E70C980DAF67042082E05B
:1073300039000CF02EFB051E7DD0EA78AB781202E6
:107340001A432B7968791B0413430006EA7A184321
:10735000AB7A6705147B697B6704140906EA7C191C
:1073600043AB7C6705147D6F7D6704143F06EA7D9F
:107370001F43AB7D6705147E6704126A7E12061AEE
:10738000432B7890460491422B03D16B784D2B0010
:10739000D1A2E0280000F0C6F94B461969986800B0
:1073A000F0BFFD002800D02CE6039B1B789B070054
:1073B000D4E0E695E63100584616F0B867058E022F
:1073C00065E768680DF0E6FF4B4698625FE7706816
:1073D0000DF0E0FF4B46186138E76704321B070CDD
:1073E000D40B9800280CD00CF0FCFB002808D153DB
:1073F0004636485E6200F0F9FB05E034480CF0F1D7
:10740000FB20000EF0B6FE0B9B002B1ED00CF0599B
:10741000FA0CF02DFB73E6FFF72EF8B7E5069B5C40
:10742000469A46AAE503229A600FE7390029480CDC
:10743000F0AAFA051E00D07AE7AD67056EA9FF4BEA
:1074400046D86001E744463E670581241B0700D407
:1074500054E6DA67051C9BFF4B465861F3E6670468
:107460000C95FF4B461862EDE64B464A46494620CE
:10747000005B6A5268096801F043FF3D670520859B
:10748000FF4B469861DD67050C7F67045461D7E6C2
:10749000A83502408C35024098350240B435024090
:1074A000C0350240CC350240D8350240E4350240B8
:1074B000F0356706861C67088628C0340240A08025
:1074C0000040FC3502402B7F2067058A4AB4229297
:1074D00000934600225946B94252411A4200D14E09
:1074E000E7A023DB00434500D249E70D9B83420020
:1074F000D248E7049BC31A80200693C0038342004E
:10750000D340E700F0EDF8049B069AE918059015C2
:10751000F011FF280000F0FCF85B46DD1BA02342C1
:1075200046DB009B1A5B089B46114BFB186D08005D
:107530002B03D1104B4344002B03D0059B1868004C
:10754000F017F95B4600932B00059D424639006712
:10755000043C8667058E24DBF84B46DA68670683B1
:10756000582D6705894613E73FE5C04630FDFFFF0C
:1075700000FBFFFF10B50DF049FB364816F09EF9F1
:107580008420000600F0A4F8FEF7C2FB0DF060FFB7
:107590000DF022F804F050F80CF088F943425841FD
:1075A0002D4C226BC3001343236304F08DFD002890
:1075B00024D004F01FFB670AAE6800F0EAF800F080
:1075C000F0F803F0D4FE606A431E9841033002F0E5
:1075D00026FF636A002B32D1FEF7F7FC236B1B07F3
:1075E0002AD50CF0B4F91B4807F0A3FF1B4C200070
:1075F00000F0FFFDFBE780211948890104F01FFD21
:1076000067042E1ED007F06CFE0200154B002118F7
:10761000000DF078FD002803D1016707AB7407F077
:10762000F2FE002803D00467071004F01EFDB9E73E
:10763000FFF735FCD1E7FEF778FCC9E707F0B9FEA4
:107640000200DFE7C04600001083D88A0240003500
:107650000C0018030240A025260014360240002228
:10766000024B18605A609A607047108B02401F23CB
:10767000114A51681F3010B59843002910D0916805
:107680004B682033CB18586000200124D8601800C4
:107690001C609960CB6020309360106705A2461390
:1076A00068012458670718D96053602030F1E7C09B
:1076B0004667044C0023203803670458B5FFF7CB16
:1076C0006707A44867040CCDFF67063A70B50C0045
:1076D00044432000FFF7C4FF22001F2305001F3290
:1076E00000219A4315F06AFE280070670524054BB7
:1076F0001B6810B5834202D9670640FFF7D4FFF933
:10770000670760064B01009A685868424310B51835
:1077100068920015F04EFE6708B634488B024010A0
:10772000B504000648C3689B005A434B43006821D8
:1077300000C01815F03C670D2409494A688B68534E
:107740004330B5002B09D000230D689A00A8504C97
:10775000688A68624301339A42F7D86706B734678C
:107760000650024C0FC467063E67053C4B0A4A1A96
:1077700060102209495A6099610022012108489A43
:1077800060DA601A615A61D96118625A62054B1950
:107790006070471C8B0240670430CCCCCCFF1B1BB5
:1077A0001BFF448B0240024B9861D9611A627047FB
:1077B000C046670420024B9A680260DB680B6707CB
:1077C00030014B9860D967070CF0B50500CE4647ED
:1077D000464E49203D4A682B0680B51B0E102A3BB9
:1077E000D05E2B31D84A4FCB68FA685A438B68D2A7
:1077F000183B6892009B18474AEE00B6180822947E
:10780000460124B44418003278203005E08D691D0B
:10781000600433520883420AD01442F7D1CD690084
:107820002DF6D00D6A670816F4D13A488046FA68FA
:107830004244920001369B18B445E1D18B6808336D
:107840008B6001E00A2853D0670CB3505E2B35D80B
:107850002D4B2C4FED00ED18FA68CB670D7E0822FA
:1078600090460126A844022084462A781C00403411
:1078700006E088691860586008335208A3420BD0AC
:107880001642F6D1C8690028F6D0086A670A18F3CC
:10789000D11B4881466046FA684A446704482A7802
:1078A000012811D001208446DCE70A28BFD100233B
:1078B000104A8B609268CB68103A1033CB609342C9
:1078C000B5D90023CB60B2E70135A845C7D18B6895
:1078D00010338B60ABE7002306670728083A086778
:1078E0000528EBD8A0E767068264488B0240D83DA4
:1078F0000240F8FFFF3FF0FFFF3F10B5041E07D026
:10790000094B1B68002B03D0086705A524056707F2
:10791000AA5EFFF744FF013420780028F9D1F5E78B
:10792000C046448B6706BB2C670CBB041E00822339
:107930005B02CB4005000F00914693B0DB073BD5BF
:107940000A2942D1002840DA01239B46013E4542E4
:1079500001AB9A46002240235146CA541C4B98461C
:1079600011AC2800390015F08DFF43465B5C220006
:10797000013C2370013E2B000500BB42F1D25B4667
:10798000002B03D02D23670416941E4B46002B0FAB
:10799000D0A2450DD2002E0BDD230001E0002A0607
:1079A000DD4A46013B1A709A19121B9A45F6D31C00
:1079B0006705A6349AFF6712942400239B46BFE70D
:1079C000D040024010B5064CA0610800FFF786FFCA
:1079D0000A20FFF7D7FE034BA361670681681C6787
:1079E000078518082370B5054C0A2065686360FF99
:1079F000F7C6FEFF232B4063670798246704240F14
:107A0000B46706A806454B1B6882B0089F002B038D
:107A1000D0434D6B6A002B06D00267079A0C08BC56
:107A200004B01847387809AB01930028F3D03C4BD9
:107A300009269846252825D179780B00303B1B066E
:107A40001B0E9E4222D2202920D0002300227C1C23
:107A500078292BD84A2908D94B390906090E2D292E
:107A600024D84046890041588F460029D3D0252983
:107A70001CD12520FFF77FFE607867001C0028CA14
:107A8000D02528D9D0FFF777FE3C00F5E70A00B9EA
:107A90006705561806000E092802D8F978FC1CD68E
:107AA000E71300BC1C2022303BD1E767043A62FE9A
:107AB0002078FFF75FFEDEE701991206081D0190AE
:107AC000120E08681021FFF71BFFD4E7019B1A1D57
:107AD0001B682B6201230192EB61CC6705101868CB
